:020000040800F2
:1000000000500020D13D0008BD3A0008C53A000864
:10001000CD3A0008D53A0008DD3A0008000000009B
:10002000000000000000000000000000E53A0008A9
:10003000F13A000800000000FD3A0008093B000802
:10004000193E0008193E0008193E0008193E000834
:10005000193E0008193E0008193E0008193E000824
:10006000193E0008193E0008193E0008193E000814
:10007000153B0008293B00083D3B0008513B0008A8
:10008000193E0008193E0008193E0008193E0008F4
:10009000193E0008193E0008193E0008193E0008E4
:1000A000193E0008653B0008193E0008193E00088B
:1000B000193E0008193E0008193E0008193E0008C4
:1000C000193E0008193E0008193E0008793B000857
:1000D0008D3B0008193E0008193E0008193E000833
:1000E000193E0008193E0008193E000800000000F3
:1000F0000000000000000000000000000000000000
:0C01000000000000000000005FF808F1A3
:1001100010B5054C237833B9044B13B10448AFF341
:1001200000800123237010BDF801002000000000B2
:100130006074000808B5034B1BB103490348AFF3D3
:10014000008008BD00000000FC0100206074000871
:1001500081F0004102E000BF83F0004330B54FEA78
:1001600041044FEA430594EA050F08BF90EA020FE5
:100170001FBF54EA000C55EA020C7FEA645C7FEA78
:10018000655C00F0E2804FEA5454D4EB5555B8BF9B
:100190006D420CDD2C4480EA020281EA030382EA0C
:1001A000000083EA010180EA020281EA0303362D9E
:1001B00088BF30BD11F0004F4FEA01314FF4801C71
:1001C0004CEA113102D0404261EB410113F0004F83
:1001D0004FEA03334CEA133302D0524263EB43033A
:1001E00094EA050F00F0A780A4F10104D5F1200ED8
:1001F0000DDB02FA0EFC22FA05F2801841F1000133
:1002000003FA0EF2801843FA05F359410EE0A5F106
:1002100020050EF1200E012A03FA0EFC28BF4CF037
:10022000020C43FA05F3C01851EBE37101F00045ED
:1002300007D54FF0000EDCF1000C7EEB00006EEBFA
:100240000101B1F5801F1BD3B1F5001F0CD3490884
:100250005FEA30004FEA3C0C04F101044FEA4452DB
:1002600012F5800F80F09A80BCF1004F08BF5FEA62
:10027000500C50F1000041EB045141EA050130BD42
:100280005FEA4C0C404141EB0101013C28BFB1F554
:10029000801FE9D291F0000F04BF01460020B1FA9F
:1002A00081F308BF2033A3F10B03B3F120020CDA72
:1002B0000C3208DD02F1140CC2F10C0201FA0CF050
:1002C00021FA02F10CE002F11402D8BFC2F1200CB5
:1002D00001FA02F120FA0CFCDCBF41EA0C0190406B
:1002E000E41AA2BF01EB0451294330BD6FEA0404B4
:1002F0001F3C1CDA0C340EDC04F11404C4F120029F
:1003000020FA04F001FA02F340EA030021FA04F3B0
:1003100045EA030130BDC4F10C04C4F1200220FA07
:1003200002F001FA04F340EA0300294630BD21FA45
:1003300004F0294630BD94F0000F83F4801306BF0B
:1003400081F480110134013D4EE77FEA645C18BFFF
:100350007FEA655C29D094EA050F08BF90EA020F96
:1003600005D054EA000C04BF1946104630BD91EA8E
:10037000030F1EBF0021002030BD5FEA545C05D191
:100380004000494128BF41F0004130BD14F58004D0
:100390003CBF01F5801130BD01F0004545F0FE4144
:1003A00041F470014FF0000030BD7FEA645C1ABF79
:1003B000194610467FEA655C1CBF0B46024650EAB0
:1003C000013406BF52EA033591EA030F41F40021DC
:1003D00030BD00BF90F0000F04BF0021704730B562
:1003E0004FF4806404F132044FF000054FF0000137
:1003F00050E700BF90F0000F04BF0021704730B5F8
:100400004FF4806404F1320410F0004548BF4042CC
:100410004FF000013EE700BF42004FEAE2014FEA21
:1004200031014FEA02701FBF12F07F4393F07F4FFC
:1004300081F06051704732F07F4208BF704793F0FF
:100440007F4F04BF41F40021704730B54FF4607412
:1004500001F0004521F000411CE700BF50EA010215
:1004600008BF704730B54FF000050AE050EA0102BE
:1004700008BF704730B511F0004502D5404261EB2E
:1004800041014FF4806404F132045FEA915C3FF46F
:10049000D8AE4FF003025FEADC0C18BF03325FEA0C
:1004A000DC0C18BF033202EBDC02C2F1200300FABD
:1004B00003FC20FA02F001FA03FE40EA0E0021FAE2
:1004C00002F11444BDE600BF4FEA410212F50012EA
:1004D00015D211D56FF47873B3EB625212D94FEA8B
:1004E000C12343F0004343EA505311F0004F23FA75
:1004F00002F018BF404270474FF00000704750EACA
:10050000013005D111F0004008BF6FF00040704786
:100510004FF00000704700BF80F0004002E000BFD5
:1005200081F0004142001FBF5FEA410392EA030FDE
:100530007FEA226C7FEA236C6AD04FEA1262D2EB28
:100540001363C1BFD218414048404140B8BF5B422D
:10055000192B88BF704710F0004F40F4000020F0C6
:100560007F4018BF404211F0004F41F4000121F0DC
:100570007F4118BF494292EA030F3FD0A2F1010226
:1005800041FA03FC10EB0C00C3F1200301FA03F164
:1005900000F0004302D5494260EB4000B0F5000F87
:1005A00013D3B0F1807F06D340084FEA310102F146
:1005B0000102FE2A51D2B1F1004F40EBC25008BFF8
:1005C00020F0010040EA03007047490040EB0000C2
:1005D000013A28BFB0F5000FEDD2B0FA80FCACF1C3
:1005E000080CB2EB0C0200FA0CF0AABF00EBC250F0
:1005F00052421843BCBFD0401843704792F0000FDE
:1006000081F4000106BF80F400000132013BB5E730
:100610004FEA41037FEA226C18BF7FEA236C21D0A6
:1006200092EA030F04D092F0000F08BF084670470B
:1006300090EA010F1CBF0020704712F07F4F04D1D9
:10064000400028BF40F00040704712F100723CBFEC
:1006500000F50000704700F0004343F0FE4040F416
:10066000000070477FEA226216BF08467FEA2363D4
:100670000146420206BF5FEA412390EA010F40F4BF
:10068000800070474FF0000304E000BF10F000430B
:1006900048BF40425FEA000C08BF704743F09643F2
:1006A00001464FF000001CE050EA010208BF70470D
:1006B0004FF000030AE000BF50EA010208BF704794
:1006C00011F0004302D5404261EB41015FEA010CA9
:1006D00002BF84460146002043F0B64308BFA3F1A1
:1006E0008053A3F50003BCFA8CF2083AA3EBC25383
:1006F00010DB01FA02FC634400FA02FCC2F12002A2
:10070000BCF1004F20FA02F243EB020008BF20F0D8
:100710000100704702F1200201FA02FCC2F120023E
:1007200050EA4C0021FA02F243EB020008BF20EA33
:10073000DC7070474FF0FF0C1CEAD0521EBF1CEA61
:10074000D15392EA0C0F93EA0C0F6FD01A4480EA4F
:10075000010C400218BF5FEA41211ED04FF0006338
:1007600043EA501043EA5111A0FB01310CF0004064
:10077000B1F5000F3EBF490041EAD3715B0040EA8A
:10078000010062F17F02FD2A1DD8B3F1004F40EB5A
:10079000C25008BF20F00100704790F0000F0CF02D
:1007A000004C08BF49024CEA502040EA51207F3AF1
:1007B000C2BFD2F1FF0340EAC250704740F40000CC
:1007C0004FF00003013A5DDC12F1190FDCBF00F0BD
:1007D00000407047C2F10002410021FA02F1C2F16B
:1007E000200200FA02FC5FEA310040F1000053EA07
:1007F0004C0308BF20EADC70704792F0000F00F055
:10080000004C02BF400010F4000F013AF9D040EA5A
:100810000C0093F0000F01F0004C02BF490011F4EE
:10082000000F013BF9D041EA0C018FE70CEAD153EC
:1008300092EA0C0F18BF93EA0C0F0AD030F0004C6C
:1008400018BF31F0004CD8D180EA010000F0004020
:10085000704790F0000F17BF90F0004F084691F0DE
:10086000000F91F0004F14D092EA0C0F01D1420218
:100870000FD193EA0C0F03D14B0218BF084608D1E1
:1008800080EA010000F0004040F0FE4040F400002B
:10089000704740F0FE4040F4400070474FF0FF0CBE
:1008A0001CEAD0521EBF1CEAD15392EA0C0F93EA05
:1008B0000C0F69D0A2EB030280EA010C49024FEA57
:1008C000402037D04FF0805343EA111143EA101310
:1008D0000CF000408B4238BF5B0042F17D024FF4C8
:1008E000000C8B4224BF5B1A40EA0C00B3EB510FA3
:1008F00024BFA3EB510340EA5C00B3EB910F24BF8C
:10090000A3EB910340EA9C00B3EBD10F24BFA3EB10
:10091000D10340EADC001B0118BF5FEA1C1CE0D1D8
:10092000FD2A3FF650AF8B4240EBC25008BF20F08B
:10093000010070470CF0004C4CEA50207F32C2BFDF
:10094000D2F1FF0340EAC250704740F400004FF07C
:100950000003013A37E792F0000F00F0004C02BFAD
:10096000400010F4000F013AF9D040EA0C0093F077
:10097000000F01F0004C02BF490011F4000F013BD1
:10098000F9D041EA0C0195E70CEAD15392EA0C0F39
:1009900008D142027FF47DAF93EA0C0F7FF470AF71
:1009A000084676E793EA0C0F04D14B023FF44CAFB4
:1009B00008466EE730F0004C18BF31F0004CCAD149
:1009C00030F000427FF45CAF31F000437FF43CAF85
:1009D0005FE700BF034613F8012B002AFBD1181A6A
:1009E0000138704770B54FF0FF0C4CF4E06C1CEA16
:1009F00011541DBF1CEA135594EA0C0F95EA0C0F15
:100A000000F0DEF82C4481EA030621EA4C5123EA87
:100A10004C5350EA013518BF52EA033541F48011B6
:100A200043F4801338D0A0FB02CE4FF00005E1FB69
:100A300002E506F00042E0FB03E54FF00006E1FBB3
:100A400003569CF0000F18BF4EF0010EA4F1FF04F6
:100A5000B6F5007F64F5407404D25FEA4E0E6D4136
:100A600046EB060642EAC62141EA55514FEAC52047
:100A700040EA5E504FEACE2EB4F1FD0C88BFBCF5C3
:100A8000E06F1ED8BEF1004F08BF5FEA500E50F174
:100A9000000041EB045170BD06F0004646EA01013A
:100AA00040EA020081EA0301B4EB5C04C2BFD4EB6C
:100AB0000C0541EA045170BD41F480114FF0000E65
:100AC000013C00F3AB8014F1360FDEBF002001F0D3
:100AD000004170BDC4F10004203C35DA0C341BDC4D
:100AE00004F11404C4F1200500FA05F320FA04F01F
:100AF00001FA05F240EA020001F0004221F0004153
:100B000010EBD37021FA04F642EB06015EEA430EC5
:100B100008BF20EAD37070BDC4F10C04C4F12005F5
:100B200000FA04F320FA05F001FA04F240EA0200A8
:100B300001F0004110EBD37041F100015EEA430E79
:100B400008BF20EAD37070BDC4F1200500FA05F299
:100B50004EEA020E20FA04F301FA05F243EA020318
:100B600021FA04F001F0004121FA04F220EA020027
:100B700000EBD3705EEA430E08BF20EAD37070BD6D
:100B800094F0000F0FD101F00046400041EB01014D
:100B900011F4801F08BF013CF7D041EA060195F02F
:100BA000000F18BF704703F00046520043EB0303E9
:100BB00013F4801F08BF013DF7D043EA06037047D6
:100BC00094EA0C0F0CEA135518BF95EA0C0F0CD0E1
:100BD00050EA410618BF52EA4306D1D181EA030127
:100BE00001F000414FF0000070BD50EA410606BF21
:100BF0001046194652EA430619D094EA0C0F02D166
:100C000050EA013613D195EA0C0F05D152EA0336AA
:100C10001CBF104619460AD181EA030101F00041C8
:100C200041F0FE4141F470014FF0000070BD41F011
:100C3000FE4141F4780170BD70B54FF0FF0C4CF4EB
:100C4000E06C1CEA11541DBF1CEA135594EA0C0F0A
:100C500095EA0C0F00F0A7F8A4EB050481EA030E57
:100C600052EA03354FEA013100F088804FEA03333E
:100C70004FF0805545EA131343EA12634FEA02220C
:100C800045EA111545EA10654FEA00260EF00041CD
:100C90009D4208BF964244F1FD0404F5407402D21F
:100CA0005B084FEA3202B61A65EB03055B084FEAB0
:100CB00032024FF480104FF4002CB6EB020E75EBAD
:100CC000030E22BFB61A754640EA0C005B084FEAD5
:100CD0003202B6EB020E75EB030E22BFB61A754652
:100CE00040EA5C005B084FEA3202B6EB020E75EB9D
:100CF000030E22BFB61A754640EA9C005B084FEA15
:100D00003202B6EB020E75EB030E22BFB61A754621
:100D100040EADC0055EA060E18D04FEA051545EA10
:100D200016754FEA06164FEAC30343EA52734FEAB9
:100D3000C2025FEA1C1CC0D111F4801F0BD141EA32
:100D400000014FF000004FF0004CB6E711F4801F97
:100D500004BF01430020B4F1FD0C88BFBCF5E06F77
:100D60003FF6AFAEB5EB030C04BFB6EB020C5FEA87
:100D7000500C50F1000041EB045170BD0EF0004EDC
:100D80004EEA113114EB5C04C2BFD4EB0C0541EA0E
:100D9000045170BD41F480114FF0000E013C90E60B
:100DA00045EA060E8DE60CEA135594EA0C0F08BFCF
:100DB00095EA0C0F3FF43BAF94EA0C0F0AD150EACE
:100DC00001347FF434AF95EA0C0F7FF425AF104661
:100DD00019462CE795EA0C0F06D152EA03353FF489
:100DE000FDAE1046194622E750EA410618BF52EA06
:100DF00043067FF4C5AE50EA41047FF40DAF52EADA
:100E000043057FF4EBAE12E74FF0FF3C06E000BF76
:100E10004FF0010C02E000BF4FF0010C4DF804CD83
:100E20004FEA410C7FEA6C5C4FEA430C18BF7FEA43
:100E30006C5C1BD001B050EA410C0CBF52EA430C71
:100E400091EA030F02BF90EA020F0020704710F1F1
:100E5000000F91EA030F58BF994208BF90422CBF80
:100E6000D8176FEAE37040F0010070474FEA410C79
:100E70007FEA6C5C02D150EA013C07D14FEA430C97
:100E80007FEA6C5CD6D152EA033CD3D05DF8040B08
:100E9000704700BF8446104662468C46194663463A
:100EA00000E000BF01B5FFF7B7FF002848BF10F111
:100EB000000F01BD4DF808EDFFF7F4FF0CBF012056
:100EC00000205DF808FB00BF4DF808EDFFF7EAFFD2
:100ED00034BF012000205DF808FB00BF4DF808ED8D
:100EE000FFF7E0FF94BF012000205DF808FB00BF82
:100EF0004DF808EDFFF7CEFF94BF012000205DF80C
:100F000008FB00BF4DF808EDFFF7C4FF34BF012018
:100F100000205DF808FB00BF4FEA410C7FEA6C5CE3
:100F200002D150EA013C0AD14FEA430C7FEA6C5CE3
:100F300002D152EA033C02D14FF0000070474FF05B
:100F40000100704780B400AF00BFBD4680BC704751
:100F500080B582B000AF78607B68002B01D101239F
:100F600076E07B685B6A002B08D17B685B68B3F531
:100F7000827F09D07B680022DA6105E07B6800226D
:100F80001A617B6800225A617B6800229A627B6842
:100F900093F85130DBB2002B06D17B68002283F836
:100FA0005020786802F07EFB7B68022283F8512093
:100FB0007B681B681A687B681B6822F040021A6015
:100FC0007B685B6803F482727B689B6803F404436C
:100FD0001A437B68DB6803F400631A437B681B6970
:100FE00003F002031A437B685B6903F001031A43B1
:100FF0007B689B6903F400731A437B68DB6903F029
:1010000038031A437B681B6A03F0800342EA03013A
:101010007B689B6A03F400527B681B680A431A6072
:101020007B689B691A0C7B681B6802F004025A609B
:101030007B681B68DA697B681B6822F40062DA61EE
:101040007B6800225A657B68012283F851200023C7
:1010500018460837BD4680BD80B586B000AFF86041
:10106000B9607A607B80FB6893F85130FB75FB6850
:101070005B683B61FB7D012B0CD03B69B3F5827F44
:1010800006D1FB689B68002B02D1FB7D042B01D0AD
:101090000223CFE0BB68002B05D07B68002B02D079
:1010A0007B88002B01D10123C4E0FB6893F850300A
:1010B000012B01D10223BDE0FB68012283F85020FF
:1010C000FB6893F85130DBB2042B03D0FB68052298
:1010D00083F85120FB6800225A65FB68BA681A63DE
:1010E000FB687A889A86FB687A88DA86FB687A6871
:1010F0009A63FB687A889A87FB687A88DA87FB6844
:1011000000221A64FB6800225A64FB6893F851308D
:10111000DBB2042B08D1FB68DB6C484ADA62FB685F
:10112000DB6C474A9A6207E0FB68DB6C454ADA628F
:10113000FB68DB6C444A9A62FB68DB6C434A1A63C7
:10114000FB68DB6C00225A63FB68D86CFB681B6889
:101150000C331946FB689B6B1A46FB68DB8F9BB20E
:1011600001F0ECF90346002B0BD0FB685B6D43F0FC
:101170001002FB685A65FB68002283F850200123A7
:1011800058E0FB681B685A68FB681B6842F0010264
:101190005A60FB689B6C0022DA62FB689B6C002241
:1011A0009A62FB689B6C00221A63FB689B6C0022AE
:1011B0005A63FB68986CFB681B6B1946FB681B68DD
:1011C0000C331A46FB68DB8E9BB201F0B7F903467D
:1011D000002B0BD0FB685B6D43F01002FB685A6577
:1011E000FB68002283F85020012323E0FB681B6882
:1011F0001B6803F04003402B07D0FB681B681A688C
:10120000FB681B6842F040021A60FB68002283F80A
:101210005020FB681B685A68FB681B6842F020027C
:101220005A60FB681B685A68FB681B6842F0020240
:101230005A60002318461837BD4680BD9D1500082A
:1012400069140008B91500080F150008D515000825
:1012500080B588B000AF78607B681B685B68FB6115
:101260007B681B689B68BB61BB699B0903F001033A
:10127000002B0FD1BB6903F00103002B0AD0FB69DF
:101280009B0903F00103002B04D07B681B6C78687A
:101290009847BEE0BB695B0803F00103002B0AD04E
:1012A000FB69DB0903F00103002B04D07B685B6C56
:1012B00078689847ADE0BB695B0903F00103002B38
:1012C00006D1BB699B0903F00103002B00F0A1804C
:1012D000FB695B0903F00103002B00F09A80BB69F6
:1012E0009B0903F00103002B23D07B6893F8513056
:1012F000DBB2032B11D07B685B6D43F004027B688B
:101300005A6500237B617B681B68DB687B617B68B7
:101310001B689B687B617B690BE000233B617B68FA
:101320001B68DB683B617B681B689B683B613B69B2
:101330006FE0BB695B0903F00103002B14D07B68ED
:101340005B6D43F001027B685A650023FB607B689C
:101350001B689B68FB607B681B681A687B681B685E
:1013600022F040021A60FB687B685B6D002B4FD057
:101370007B681B685A687B681B6822F0E0025A6031
:101380007B68012283F85120FB6903F00203002BE4
:1013900004D1FB6903F00103002B34D07B681B6888
:1013A0005A687B681B6822F003025A607B68DB6C1A
:1013B000002B11D07B68DB6C174A5A637B68DB6CAF
:1013C000184601F01BF90346002B05D07B685B6DC6
:1013D00043F040027B685A657B689B6C002B16D0FB
:1013E0007B689B6C0C4A5A637B689B6C184601F0C7
:1013F00005F90346002B0AD07B685B6D43F0400281
:101400007B685A6503E0786802F03AFF00E000BFAD
:1014100000BF2037BD4680BD1516000880B483B0DC
:1014200000AF786000BF0C37BD4680BC704780B409
:1014300083B000AF786000BF0C37BD4680BC7047FA
:1014400080B483B000AF786000BF0C37BD4680BC6D
:10145000704780B483B000AF78607B685B6D1846DE
:101460000C37BD4680BC704780B584B000AF786053
:101470007B685B6AFB6000F045FAB8607B681B68BC
:101480001B6803F02003202B3BD0FB681B685A68C5
:10149000FB681B6822F020025A60FB689B68002BE7
:1014A0000DD1FB685B68B3F5827F08D1FB681B68D0
:1014B0005A68FB681B6822F003025A6007E0FB6869
:1014C0001B685A68FB681B6822F001025A60BA6800
:1014D0006421F86800F03AF90346002B02D0FB685B
:1014E00020225A65FB680022DA87FB68012283F814
:1014F0005120FB685B6D002B03D0F86802F0C0FE42
:1015000002E0F868FFF78AFF1037BD4680BD80B55E
:1015100084B000AF78607B685B6AFB6000F0F2F932
:10152000B8607B681B681B6803F02003202B2FD05A
:10153000FB681B685A68FB681B6822F020025A602F
:10154000BA686421F86800F053F90346002B05D00F
:10155000FB685B6D43F02002FB685A65FB681B6803
:101560005A68FB681B6822F003025A60FB6800227D
:10157000DA86FB680022DA87FB68012283F85120B3
:10158000FB685B6D002B03D0F86802F079FE02E087
:10159000F86802F09BFC1037BD4680BD80B584B072
:1015A00000AF78607B685B6AFB60F868FFF73FFF1D
:1015B00000BF1037BD4680BD80B584B000AF7860F5
:1015C0007B685B6AFB60F868FFF73AFF00BF103783
:1015D000BD4680BD80B584B000AF78607B685B6A33
:1015E000FB60FB681B685A68FB681B6822F00302FB
:1015F0005A60FB685B6D43F01002FB685A65FB683C
:10160000012283F85120F86802F03AFE00BF10373B
:10161000BD4680BD80B584B000AF78607B685B6AF2
:10162000FB60FB680022DA87FB680022DA86F86834
:1016300002F026FE00BF1037BD4680BD80B588B0E1
:1016400000AFF860B9603B601346FB7100F05AF9D7
:101650000246BB6A9B1A3A681344FB6100F052F9D8
:10166000B861394B1B685B011B0DFA6902FB03F380
:101670007B6154E03B68B3F1FF3F50D000F042F98A
:101680000246BB69D31AFA699A4202D9FB69002B58
:101690003DD1FB681B685A68FB681B6822F0E002BA
:1016A0005A60FB685B68B3F5827F11D1FB689B6869
:1016B000B3F5004F04D0FB689B68B3F5806F07D18A
:1016C000FB681B681A68FB681B6822F040021A60FE
:1016D000FB689B6AB3F5005F0FD1FB681B681A6853
:1016E000FB681B6822F400521A60FB681B681A68CA
:1016F000FB681B6842F400521A60FB68012283F801
:101700005120FB68002283F85020032317E07B69F7
:10171000002B01D10023FB617B69013B7B61FB68EE
:101720001B689A68BB681340BA689A420CBF0123D1
:101730000023DBB21A46FB799A429BD1002318465C
:101740002037BD4680BD00BF0000002080B586B0B8
:1017500002AFF860B9607A60FB685B68B3F5827FBE
:1017600011D1FB689B68B3F5004F04D0FB689B6800
:10177000B3F5806F07D1FB681B681A68FB681B68AC
:1017800022F040021A60FB685B68B3F5827F17D1D4
:10179000FB689B68B3F5806F12D17B680093BB68D0
:1017A00000220121F868FFF749FF0346002B1AD0F9
:1017B000FB685B6D43F02002FB685A65032313E06E
:1017C0007B680093BB6800228021F868FFF736FF32
:1017D0000346002B07D0FB685B6D43F02002FB68DB
:1017E0005A65032300E0002318461037BD4680BD2C
:1017F00080B586B002AFF860B9607A607B6800930C
:10180000BB6801220221F868FFF718FF0346002B8E
:1018100007D0FB685B6D43F02002FB685A65032329
:1018200013E07B680093BB6800228021F868FFF713
:1018300005FF0346002B07D0FB685B6D43F02002D9
:10184000FB685A65032300E0002318461037BD46A5
:1018500080BD000080B500AF084B1B68074A43F00D
:1018600010031360032001F041F90F2000F008F885
:1018700002F096F90023184680BD00BF0020024008
:1018800080B582B000AF7860124B1A68124B1B789B
:1018900019464FF47A73B3FBF1F3B2FBF3F3184636
:1018A00001F059F90346002B01D001230EE07B68BB
:1018B0000F2B0AD8002279684FF0FF3001F021F990
:1018C000064A7B681360002300E0012318460837AE
:1018D000BD4680BD0000002008000020040000205C
:1018E00080B400AF054B1B781A46054B1B681344A8
:1018F000034A136000BFBD4680BC7047080000204B
:101900001402002080B400AF024B1B681846BD468D
:1019100080BC70471402002080B584B000AF7860AE
:10192000FFF7F0FFB8607B68FB60FB68B3F1FF3F37
:1019300005D00A4B1B781A46FB681344FB6000BFB6
:10194000FFF7E0FF0246BB68D31AFA689A42F7D85D
:1019500000BF00BF1037BD4680BD00BF080000209B
:1019600080B586B000AF78607B68002B01D1012381
:1019700072E27B681B6803F00103002B00F0878094
:10198000924B5B6803F00C03042B0CD08F4B5B680D
:1019900003F00C03082B12D18C4B5B6803F48033EB
:1019A000B3F5803F0BD1894B1B6803F40033002B48
:1019B0006CD07B685B68002B68D101234CE27B68AC
:1019C0005B68B3F5803F06D1804B1B687F4A43F4C8
:1019D000803313602EE07B685B68002B0CD17B4B5F
:1019E0001B687A4A23F480331360784B1B68774A6C
:1019F00023F4802313601DE07B685B68B3F5A02FA0
:101A00000CD1724B1B68714A43F4802313606F4BF7
:101A10001B686E4A43F4803313600BE06B4B1B680A
:101A20006A4A23F480331360684B1B68674A23F4C7
:101A3000802313607B685B68002B13D0FFF762FF85
:101A4000386108E0FFF75EFF02463B69D31A642B5A
:101A500001D9032300E25D4B1B6803F40033002B24
:101A6000F0D014E0FFF74EFF386108E0FFF74AFFBF
:101A700002463B69D31A642B01D90323ECE1534B93
:101A80001B6803F40033002BF0D100E000BF7B683B
:101A90001B6803F00203002B63D04C4B5B6803F020
:101AA0000C03002B0BD0494B5B6803F00C03082B95
:101AB0001CD1464B5B6803F48033002B16D1434B9B
:101AC0001B6803F00203002B05D07B681B69012B08
:101AD00001D00123C0E13D4B1B6823F0F8027B6875
:101AE0005B69DB00394913430B603AE07B681B6993
:101AF000002B20D0364B01221A60FFF703FF38611C
:101B000008E0FFF7FFFE02463B69D31A022B01D91A
:101B10000323A1E12D4B1B6803F00203002BF0D03F
:101B20002A4B1B6823F0F8027B685B69DB002749BE
:101B300013430B6015E0264B00221A60FFF7E2FE0C
:101B4000386108E0FFF7DEFE02463B69D31A022B3C
:101B500001D9032380E11D4B1B6803F00203002B16
:101B6000F0D17B681B6803F00803002B3AD07B6838
:101B70009B69002B19D0174B01221A60FFF7C2FE98
:101B8000386108E0FFF7BEFE02463B69D31A022B1C
:101B900001D9032360E10D4B5B6A03F00203002BC4
:101BA000F0D0012000F09CFA1CE00A4B00221A60E1
:101BB000FFF7A8FE38610FE0FFF7A4FE02463B697D
:101BC000D31A022B08D9032346E100BF00100240BC
:101BD0000000424280044242924B5B6A03F00203DF
:101BE000002BE9D17B681B6803F00403002B00F095
:101BF000A6800023FB758B4BDB6903F08053002B21
:101C00000DD1884BDB69874A43F08053D361854B04
:101C1000DB6903F08053BB60BB680123FB75824B1B
:101C20001B6803F48073002B18D17F4B1B687E4A1E
:101C300043F480731360FFF765FE386108E0FFF737
:101C400061FE02463B69D31A642B01D9032303E1E9
:101C5000754B1B6803F48073002BF0D07B68DB6846
:101C6000012B06D16F4B1B6A6E4A43F001031362CE
:101C70002DE07B68DB68002B0CD16A4B1B6A694A3C
:101C800023F001031362674B1B6A664A23F00403C7
:101C900013621CE07B68DB68052B0CD1614B1B6A6F
:101CA000604A43F0040313625E4B1B6A5D4A43F0D3
:101CB000010313620BE05B4B1B6A5A4A23F00103DA
:101CC0001362584B1B6A574A23F0040313627B6864
:101CD000DB68002B15D0FFF715FE38610AE0FFF72F
:101CE00011FE02463B69D31A41F28832934201D970
:101CF0000323B1E04B4B1B6A03F00203002BEED031
:101D000014E0FFF7FFFD38610AE0FFF7FBFD024634
:101D10003B69D31A41F28832934201D903239BE0F5
:101D2000404B1B6A03F00203002BEED1FB7D012B1D
:101D300005D13C4BDB693B4A23F08053D3617B6880
:101D4000DB69002B00F08780364B5B6803F00C03E7
:101D5000082B61D07B68DB69022B46D1334B002214
:101D60001A60FFF7CFFD386108E0FFF7CBFD0246B0
:101D70003B69D31A022B01D903236DE0294B1B6861
:101D800003F00073002BF0D17B681B6AB3F5803F32
:101D900008D1244B5B6823F400327B689B6821499F
:101DA00013434B601F4B5B6823F474127B68196A02
:101DB0007B685B6A0B431B4913434B601B4B01223F
:101DC0001A60FFF79FFD386108E0FFF79BFD0246B0
:101DD0003B69D31A022B01D903233DE0114B1B6849
:101DE00003F00073002BF0D035E0104B00221A6096
:101DF000FFF788FD386108E0FFF784FD02463B6984
:101E0000D31A022B01D9032326E0064B1B6803F0EB
:101E10000073002BF0D11EE07B68DB69012B07D13A
:101E2000012319E0001002400070004060004242AF
:101E30000B4B5B68FB60FB6803F480327B681B6ABA
:101E40009A4206D1FB6803F470127B685B6A9A427F
:101E500001D0012300E0002318461837BD4680BD9D
:101E60000010024080B584B000AF786039607B68B4
:101E7000002B01D10123D0E06A4B1B6803F007035C
:101E80003A689A4210D9674B1B6823F007026549EC
:101E90003B6813430B60634B1B6803F007033A680E
:101EA0009A4201D00123B8E07B681B6803F002036B
:101EB000002B20D07B681B6803F00403002B05D0A7
:101EC000594B5B68584A43F4E06353607B681B6876
:101ED00003F00803002B05D0534B5B68524A43F4D0
:101EE00060535360504B5B6823F0F0027B689B6843
:101EF0004D4913434B607B681B6803F00103002BC3
:101F000040D07B685B68012B07D1474B1B6803F40B
:101F10000033002B15D101237FE07B685B68022B27
:101F200007D1414B1B6803F00073002B09D101233B
:101F300073E03D4B1B6803F00203002B01D101232A
:101F40006BE0394B5B6823F003027B685B683649C2
:101F500013434B60FFF7D6FCF8600AE0FFF7D2FCB2
:101F60000246FB68D31A41F28832934201D9032317
:101F700053E02D4B5B6803F00C027B685B689B00B1
:101F80009A42EBD1274B1B6803F007033A689A4249
:101F900010D2244B1B6823F0070222493B681343ED
:101FA0000B60204B1B6803F007033A689A4201D08C
:101FB000012332E07B681B6803F00403002B08D088
:101FC000194B5B6823F4E0627B68DB6816491343B6
:101FD0004B607B681B6803F00803002B09D0124B91
:101FE0005B6823F460527B681B69DB000E49134376
:101FF0004B6000F021F802460B4B5B681B0903F0B5
:102000000F030A49CB5C22FA03F3094A1360094B18
:102010001B681846FFF734FC002318461037BD46EE
:1020200080BD00BF00200240001002409C740008E8
:10203000000000200400002080B487B000AF00231F
:10204000FB600023BB6000237B6100237B600023D7
:102050003B611E4B5B68FB60FB6803F00C03042BC9
:1020600002D0082B03D027E0194B3B6127E0FB6827
:102070009B0C03F00F03174AD35C7B60FB6803F4EF
:102080008033002B10D0114B5B685B0C03F0010315
:10209000114AD35CBB607B680D4A03FB02F2BB684C
:1020A000B2FBF3F37B6104E07B680C4A02FB03F3B1
:1020B0007B617B693B6102E0054B3B6100BF3B6993
:1020C00018461C37BD4680BC704700BF0010024058
:1020D00000127A00AC740008BC74000800093D00CE
:1020E00080B485B000AF78600A4B1B680A4AA2FB37
:1020F00003235B0A7A6802FB03F3FB6000BFFB6803
:102100005A1EFA60002BF9D100BF00BF1437BD463C
:1021100080BC704700000020D34D621080B48BB0AB
:1021200000AF7860396000237B6200233B6269E185
:1021300001227B6A02FA03F3FB613B681B68FA69C0
:102140001340BB61BA69FB699A4240F058813B6811
:102150005B689A4A93425ED0984A934275D8984AEF
:10216000934258D0964A93426FD8964A934252D09F
:10217000944A934269D8944A93424CD0924A9342EB
:1021800063D8924A934246D0904A93425DD8122B2C
:102190002AD8122B59D801A252F823F0172200088E
:1021A000F121000803220008452200084B22000804
:1021B0004B2200084B2200084B2200084B2200084B
:1021C0004B2200084B2200084B2200084B2200083B
:1021D0004B2200084B2200084B2200084B2200082B
:1021E000F92100080D220008794A934213D02CE00F
:1021F0003B68DB683B6229E03B68DB6804333B6299
:1022000024E03B68DB6808333B621FE03B68DB6827
:102210000C333B621AE03B689B68002B02D104231D
:102220003B6213E03B689B68012B05D108233B62AE
:102230007B68FA691A6109E008233B627B68FA69E6
:102240005A6103E000233B6200E000BFBB69FF2B43
:1022500001D87B6801E07B6804337B61BB69FF2B9D
:1022600002D87B6A9B0002E07B6A083B9B003B61D3
:102270007B691A680F213B6901FA03F3DB431A40BB
:10228000396A3B6901FA03F31A437B691A603B68B8
:102290005B6803F08053002B00F0B1804D4B9B69CD
:1022A0004C4A43F0010393614A4B9B6903F00103DD
:1022B000BB60BB68484A7B6A9B08023352F82330F4
:1022C000FB607B6A03F003039B000F2202FA03F317
:1022D000DB43FA681340FB607B68404A934213D0AB
:1022E0007B683F4A93420DD07B683E4A934207D0B9
:1022F0007B683D4A934201D1032306E0042304E0B6
:10230000022302E0012300E000237A6A02F00302C4
:1023100092009340FA681343FB602F497B6A9B0845
:102320000233FA6841F823203B685B6803F48013AA
:10233000002B06D02D4B9A682C49BB6913438B6048
:1023400006E02A4B9A68BB69DB43284913408B603F
:102350003B685B6803F40013002B06D0234BDA685C
:102360002249BB691343CB6006E0204BDA68BB69A6
:10237000DB431E491340CB603B685B6803F40033CA
:10238000002B06D0194B5A681849BB6913434B60A0
:1023900006E0164B5A68BB69DB43144913404B6097
:1023A0003B685B6803F48033002B21D00F4B1A6825
:1023B0000E49BB6913430B6021E000BF00003210DF
:1023C0000000311000002210000021100000121047
:1023D0000000111000100240000001400008014000
:1023E000000C0140001001400014014000040140B5
:1023F0000B4B1A68BB69DB43094913400B607B6ACE
:1024000001337B623B681A687B6A22FA03F3002B74
:102410007FF48EAE00BF00BF2C37BD4680BC704736
:102420000004014080B483B000AF78600B467B802D
:1024300013467B707B78002B03D07A887B681A6107
:1024400003E07B881A047B681A6100BF0C37BD4625
:1024500080BC704780B485B000AF78600B467B804D
:102460007B68DB68FB607A88FB6813401A04FB68B2
:10247000D9437B880B401A437B681A6100BF14372D
:10248000BD4680BC7047000080B485B000AF786066
:102490000023FB607B68002B01D1012343E07B68B4
:1024A0001B681A46224B1344224AA2FB03231B0932
:1024B0009A007B681A647B681F4ADA637B68022291
:1024C00083F821207B681B681B68FB60FB6823F492
:1024D0007F5323F03003FB607B685A687B689B68FE
:1024E0001A437B68DB681A437B681B691A437B6865
:1024F0005B691A437B689B691A437B68DB691343FA
:10250000FA681343FB607B681B68FA681A607B6893
:1025100000229A637B68012283F821207B680022D5
:1025200083F82020002318461437BD4680BC70472E
:10253000F8FFFDBFCDCCCCCC0000024080B586B00A
:1025400000AFF860B9607A603B600023FB75FB6800
:1025500093F82030012B01D102234BE0FB680122CC
:1025600083F82020FB6893F82130DBB2012B3AD1AD
:10257000FB68022283F82120FB6800229A63FB6833
:102580001B681A68FB681B6822F001021A603B682E
:102590007A68B968F86800F0AFF9FB68DB6A002B6D
:1025A00008D0FB681B681A68FB681B6842F00E02C3
:1025B0001A600FE0FB681B681A68FB681B6822F052
:1025C00004021A60FB681B681A68FB681B6842F00B
:1025D0000A021A60FB681B681A68FB681B6842F0F5
:1025E00001021A6005E0FB68002283F82020022324
:1025F000FB75FB7D18461837BD4680BD80B584B09D
:1026000000AF78600023FB737B6893F82130DBB266
:10261000022B05D07B6804229A630123FB7351E0EF
:102620007B681B681A687B681B6822F00E021A60C0
:102630007B681B681A687B681B6822F001021A60BD
:102640007B681B68224A934229D07B681B68214A19
:10265000934222D07B681B681F4A93421AD07B6842
:102660001B681E4A934212D07B681B681C4A934227
:102670000AD07B681B681B4A934202D14FF4801337
:102680000EE04FF080730BE04FF4803308E04FF41E
:10269000805305E04FF4807302E0102300E0012333
:1026A000114A53607B68012283F821207B68002255
:1026B00083F820207B685B6B002B03D07B685B6B0F
:1026C00078689847FB7B18461037BD4680BD00BF31
:1026D000080002401C00024030000240440002405A
:1026E000580002406C0002400000024080B584B0F7
:1026F00000AF78607B68DB6B1B68FB607B681B68E6
:102700001B68BB607B681B6C04229A40FB6813400B
:10271000002B4FD0BB6803F00403002B4AD07B682A
:102720001B681B6803F02003002B07D17B681B6824
:102730001A687B681B6822F004021A607B681B68B9
:10274000664A934229D07B681B68654A934222D02F
:102750007B681B68634A93421AD07B681B68624A95
:10276000934212D07B681B68604A93420AD07B6810
:102770001B685F4A934202D14FF480030EE04FF092
:1027800080630BE04FF4802308E04FF4804305E0C2
:102790004FF4806302E0402300E00423554A536075
:1027A0007B68DB6A002B00F094807B68DB6A7868CA
:1027B00098478EE07B681B6C02229A40FB681340AE
:1027C000002B56D0BB6803F00203002B51D07B686E
:1027D0001B681B6803F02003002B0BD17B681B6870
:1027E0001A687B681B6822F00A021A607B68012263
:1027F00083F821207B681B68384A934229D07B6884
:102800001B68374A934222D07B681B68354A934243
:102810001AD07B681B68344A934212D07B681B68CD
:10282000324A93420AD07B681B68314A934202D1F4
:102830004FF400130EE04FF000730BE04FF4003341
:1028400008E04FF4005305E04FF4007302E020234A
:1028500000E00223274A53607B68002283F820208F
:102860007B689B6A002B34D07B689B6A78689847AA
:102870002FE07B681B6C08229A40FB681340002BFA
:1028800028D0BB6803F00803002B23D07B681B68AB
:102890001A687B681B6822F00E021A607B681A6C4B
:1028A0007B68DB6B012101FA02F25A607B6801222E
:1028B0009A637B68012283F821207B68002283F8D9
:1028C00020207B681B6B002B04D07B681B6B786817
:1028D000984700BF00BF1037BD4680BD08000240CA
:1028E0001C000240300002404400024058000240F8
:1028F0006C0002400000024080B485B000AFF86078
:10290000B9607A603B60FB681A6CFB68DB6B012185
:1029100001FA02F25A60FB681B683A685A60FB6869
:102920005B68102B08D1FB681B687A689A60FB68AB
:102930001B68BA68DA6007E0FB681B68BA689A60CF
:10294000FB681B687A68DA6000BF1437BD4680BC3C
:102950007047000080B485B000AF78607B6803F0FA
:102960000703FB600C4BDB68BB60BA684FF6FF03E4
:102970001340BB60FB681A02BB68134343F0BF639C
:1029800043F40033BB60044ABB68D36000BF143714
:10299000BD4680BC704700BF00ED00E080B400AFD2
:1029A000044BDB681B0A03F007031846BD4680BCD6
:1029B000704700BF00ED00E080B483B000AF034675
:1029C000FB7197F90730002B0BDBFB7903F01F023B
:1029D000064997F907305B09012000FA02F241F835
:1029E000232000BF0C37BD4680BC704700E100E0EB
:1029F00080B483B000AF03463960FB7197F90730AC
:102A0000002B0ADB3B68DAB20C4997F90730120158
:102A1000D2B20B4483F800230AE03B68DAB20849DB
:102A2000FB7903F00F03043B1201D2B20B441A7678
:102A300000BF0C37BD4680BC704700BF00E100E01E
:102A400000ED00E080B489B000AFF860B9607A6052
:102A5000FB6803F00703FB61FB69C3F10703042B69
:102A600028BF0423BB61FB690433062B02D9FB6931
:102A7000033B00E000237B614FF0FF32BB6902FAA9
:102A800003F3DA43BB681A407B699A404FF0FF3189
:102A90007B6901FA03F3D9437B680B401343184663
:102AA0002437BD4680BC704780B582B000AF7860E7
:102AB0007B68013BB3F1807F01D301230FE00A4A19
:102AC0007B68013B53600F214FF0FF30FFF790FF11
:102AD000054B00229A60044B07221A600023184617
:102AE0000837BD4680BD00BF10E000E080B582B071
:102AF00000AF78607868FFF72DFF00BF0837BD464C
:102B000080BD80B586B000AF0346B9607A60FB73C4
:102B100000237B61FFF742FF78617A68B9687869C2
:102B2000FFF790FF024697F90F3011461846FFF75E
:102B30005FFF00BF1837BD4680BD80B582B000AFD3
:102B40000346FB7197F907301846FFF735FF00BFC2
:102B50000837BD4680BD80B582B000AF7860786828
:102B6000FFF7A2FF034618460837BD4680BD80B573
:102B700082B000AF78607B68002B01D1012341E077
:102B80007B6893F83D30DBB2002B06D17B680022D6
:102B900083F83C20786800F017FF7B68022283F8F6
:102BA0003D207B681A687B6804331946104600F0A4
:102BB0005BFA7B68012283F846207B68012283F858
:102BC0003E207B68012283F83F207B68012283F846
:102BD00040207B68012283F841207B68012283F832
:102BE00042207B68012283F843207B68012283F81E
:102BF00044207B68012283F845207B68012283F80A
:102C00003D20002318460837BD4680BD80B485B0FE
:102C100000AF78607B6893F83D30DBB2012B01D0C8
:102C200001233AE07B68022283F83D207B681B6821
:102C3000DA687B681B6842F00102DA607B681B6817
:102C4000184A93420ED07B681B68B3F1804F09D0BD
:102C50007B681B68144A934204D07B681B68134A44
:102C6000934211D17B681B689B6803F00703FB60EC
:102C7000FB68062B10D07B681B681A687B681B6892
:102C800042F001021A6007E07B681B681A687B68E3
:102C90001B6842F001021A60002318461437BD4633
:102CA00080BC7047002C0140000400400008004038
:102CB00080B584B000AF78607B681B68DB68FB6020
:102CC0007B681B681B69BB60BB6803F00203002BB9
:102CD00020D0FB6803F00203002B1BD07B681B682D
:102CE0006FF002021A617B6801221A777B681B6809
:102CF0009B6903F00303002B03D0786800F098F978
:102D000005E0786800F08BF9786800F09AF97B6844
:102D100000221A77BB6803F00403002B20D0FB6865
:102D200003F00403002B1BD07B681B686FF00402C8
:102D30001A617B6802221A777B681B689B6903F41F
:102D40004073002B03D0786800F072F905E07868D2
:102D500000F065F9786800F074F97B6800221A7752
:102D6000BB6803F00803002B20D0FB6803F00803C6
:102D7000002B1BD07B681B686FF008021A617B6810
:102D800004221A777B681B68DB6903F00303002BBE
:102D900003D0786800F04CF905E0786800F03FF95E
:102DA000786800F04EF97B6800221A77BB6803F060
:102DB0001003002B20D0FB6803F01003002B1BD066
:102DC0007B681B686FF010021A617B6808221A7713
:102DD0007B681B68DB6903F44073002B03D07868C1
:102DE00000F026F905E0786800F019F9786800F03D
:102DF00028F97B6800221A77BB6803F00103002BD7
:102E00000CD0FB6803F00103002B07D07B681B6824
:102E10006FF001021A61786800F0FCFDBB6803F0F6
:102E20008003002B0CD0FB6803F08003002B07D03D
:102E30007B681B686FF080021A61786800F07FFA87
:102E4000BB6803F04003002B0CD0FB6803F0400389
:102E5000002B07D07B681B686FF040021A6178680E
:102E600000F0F8F8BB6803F02003002B0CD0FB68DF
:102E700003F02003002B07D07B681B686FF0200253
:102E80001A61786800F052FA00BF1037BD4680BD65
:102E900080B584B000AF786039600023FB737B6835
:102EA00093F83C30012B01D10223B4E07B6801226E
:102EB00083F83C207B68022283F83D207B681B68F6
:102EC0009B68BB60BB6823F07703BB60BB6823F4DF
:102ED0007F43BB607B681B68BA689A603B681B686D
:102EE000B3F5005F3ED0B3F5005F00F28780B3F525
:102EF000805F00F08680B3F5805F7FD8702B1AD09A
:102F0000702B7BD8602B50D0602B77D8502B3CD0C7
:102F1000502B73D8402B58D0402B6FD8302B64D017
:102F2000302B6BD8202B60D0202B67D8002B5CD0A7
:102F3000102B5AD062E07B6818683B6899683B6840
:102F40005A683B68DB6800F074F97B681B689B6813
:102F5000BB60BB6843F07703BB607B681B68BA68E3
:102F60009A604FE07B6818683B6899683B685A68CC
:102F70003B68DB6800F05DF97B681B689A687B68DA
:102F80001B6842F480429A603CE07B6818683B68AA
:102F900059683B68DB681A4600F0D4F87B681B6808
:102FA0005021184600F02BF92CE07B6818683B682C
:102FB00059683B68DB681A4600F0F2F87B681B68CA
:102FC0006021184600F01BF91CE07B6818683B681C
:102FD00059683B68DB681A4600F0B4F87B681B68E8
:102FE0004021184600F00BF90CE07B681A683B683A
:102FF0001B681946104600F002F903E00123FB7339
:1030000000E000BF7B68012283F83D207B6800223E
:1030100083F83C20FB7B18461037BD4680BD80B44A
:1030200083B000AF786000BF0C37BD4680BC7047EE
:1030300080B483B000AF786000BF0C37BD4680BC61
:10304000704780B483B000AF786000BF0C37BD46D6
:1030500080BC704780B483B000AF786000BF0C378D
:10306000BD4680BC7047000080B485B000AF78607A
:1030700039607B681B68FB607B682F4A93420BD0EA
:103080007B68B3F1804F07D07B682C4A934203D012
:103090007B682B4A934208D1FB6823F07003FB60E6
:1030A0003B685B68FA681343FB607B68224A934283
:1030B0000BD07B68B3F1804F07D07B681F4A9342E7
:1030C00003D07B681E4A934208D1FB6823F4407307
:1030D000FB603B68DB68FA681343FB60FB6823F026
:1030E00080023B685B691343FB607B68FA681A6087
:1030F0003B689A687B68DA623B681A687B689A6208
:103100007B680D4A934203D13B681A697B681A6356
:103110007B6801225A617B681B6903F00103002B65
:1031200005D07B681B6923F001027B681A6100BF30
:103130001437BD4680BC7047002C0140000400409D
:103140000008004080B487B000AFF860B9607A60D2
:10315000FB681B6A7B61FB681B6A23F00102FB684A
:103160001A62FB689B693B613B6923F0F0033B619A
:103170007B681B013A6913433B617B6923F00A03B7
:103180007B617A69BB6813437B61FB683A699A612A
:10319000FB687A691A6200BF1C37BD4680BC704765
:1031A00080B487B000AFF860B9607A60FB681B6AD2
:1031B0007B61FB681B6A23F01002FB681A62FB68E4
:1031C0009B693B613B6923F470433B617B681B0354
:1031D0003A6913433B617B6923F0A0037B61BB68C1
:1031E0001B017A6913437B61FB683A699A61FB684A
:1031F0007A691A6200BF1C37BD4680BC704780B434
:1032000085B000AF786039607B689B68FB60FB68C5
:1032100023F07003FB603A68FB68134343F0070335
:10322000FB607B68FA689A6000BF1437BD4680BCBB
:10323000704780B487B000AFF860B9607A603B60D7
:10324000FB689B687B617B6923F47F437B613B6800
:103250001A027B681A43BB6813437A6913437B6184
:10326000FB687A699A6000BF1C37BD4680BC704716
:1032700080B485B000AF786039607B6893F83C30EB
:10328000012B01D1022346E07B68012283F83C2018
:103290007B68022283F83D207B681B685B68FB60CB
:1032A0007B681B689B68BB60FB6823F07003FB6056
:1032B0003B681B68FA681343FB607B681B68FA680D
:1032C0005A607B681B68164A93420ED07B681B6865
:1032D000B3F1804F09D07B681B68124A934204D037
:1032E0007B681B68104A93420CD1BB6823F08003B3
:1032F000BB603B685B68BA681343BB607B681B6854
:10330000BA689A607B68012283F83D207B680022BE
:1033100083F83C20002318461437BD4680BC704714
:10332000002C0140000400400008004080B483B03D
:1033300000AF786000BF0C37BD4680BC704780B4DA
:1033400083B000AF786000BF0C37BD4680BC7047CB
:1033500080B500AFFEF77EFA00F032F800F07CF89E
:1033600000F0FEF800F032F900F066F900F0DAFA49
:1033700000F054FD01F070F90D48FFF747FC012201
:103380004FF400510B48FFF74DF84FF47A70FEF7F9
:10339000C3FA01F0BDF9084801F089F900210120C4
:1033A00001F09AF9054801F082F900BFEDE700BF8E
:1033B000DC03002000100140A4040020B40400201D
:1033C00080B590B000AF07F11803282200211846FD
:1033D00001F06FFF3B1D00221A605A609A60DA60AC
:1033E0001A610123BB614FF48033FB6100233B6210
:1033F0000123BB6202237B634FF48033BB634FF432
:10340000E013FB6307F118031846FEF7A9FA034619
:10341000002B01D000F01AF80F237B600223BB6061
:103420000023FB604FF480633B614FF480637B615A
:103430003B1D02211846FEF715FD0346002B01D067
:1034400000F004F800BF4037BD4680BD80B400AF37
:1034500072B600BF00BFFDE780B588B000AF07F1CE
:10346000100300221A605A609A60DA60384B9B6938
:10347000374A43F010039361354B9B6903F0100307
:10348000FB60FB68324B9B69314A43F02003936138
:103490002F4B9B6903F02003BB60BB682C4B9B69DF
:1034A0002B4A43F004039361294B9B6903F0040307
:1034B0007B607B68264B9B69254A43F00803936138
:1034C000234B9B6903F008033B603B6800224FF4E9
:1034D00000512048FEF7A6FF002210211E48FEF7EB
:1034E000A1FF002241F2F0311C48FEF79BFF4FF490
:1034F00000533B6101237B610023BB610223FB611D
:1035000007F1100319461348FEF708FE10233B612C
:1035100001237B610023BB610223FB6107F11003E0
:1035200019460D48FEF7FAFD41F2F0333B610123E5
:103530007B610023BB610223FB6107F11003194685
:103540000648FEF7EBFD00BF2037BD4680BD00BF3B
:10355000001002400010014000080140000C014032
:1035600080B582B000AF184B5B69174A43F0010386
:103570005361154B5B6903F001037B607B6800229C
:1035800009210C20FFF7BDFA0C20FFF7D6FA002224
:103590000D210D20FFF7B5FA0D20FFF7CEFA00221E
:1035A00009210E20FFF7ADFA0E20FFF7C6FA002220
:1035B00000210F20FFF7A5FA0F20FFF7BEFA00BF8A
:1035C0000837BD4680BD00BF0010024080B500AF87
:1035D000174B184A1A60164B4FF482725A60144BFC
:1035E00000229A60124B0022DA60114B00221A610D
:1035F0000F4B01225A610E4B4FF400729A610C4B33
:103600003022DA610A4B00221A62094B00225A6208
:10361000074B00229A62064B0A22DA620448FDF741
:1036200097FC0346002B01D0FFF710FF00BF80BDC1
:10363000180200200030014080B500AF174B184A37
:103640001A60164B4FF482725A60144B00229A6033
:10365000124B0022DA60114B00221A610F4B00223C
:103660005A610E4B4FF400729A610C4B3822DA61AA
:103670000A4B00221A62094B00225A62074B0022B1
:103680009A62064B0A22DA620448FDF761FC03469F
:10369000002B01D0FFF7DAFE00BF80BD70020020D2
:1036A0000038004080B58AB000AF786007F1180399
:1036B00000221A605A609A60DA607B681B688C4A44
:1036C000934240F085808B4B9B698A4A43F4805338
:1036D0009361884B9B6903F480537B617B69854BC5
:1036E0009B69844A43F004039361824B9B6903F016
:1036F00004033B613B69A023BB610223FB610323FD
:103700007B6207F1180319467B48FEF707FD40234B
:10371000BB610023FB6100233B6207F118031946DC
:103720007548FEF7FBFC754B754A1A60734B002217
:103730005A60724B00229A60704B8022DA606F4BA5
:1037400000221A616D4B00225A616C4B00229A6173
:103750006A4B0022DA616948FEF796FE0346002BA9
:1037600001D0FFF773FE7B68644ADA64634A7B68C2
:103770005362644B644A1A60624B10225A60614B78
:1037800000229A605F4B8022DA605E4B00221A6151
:103790005C4B00225A615B4B00229A61594B00221C
:1037A000DA615848FEF770FE0346002B01D0FFF7A0
:1037B0004DFE7B68534A9A64524A7B6853620022EA
:1037C00000212320FFF79DF92320FFF7B6F98BE0B6
:1037D0007B681B684D4A934240F08680454BDB690D
:1037E000444A43F48043D361424BDB6903F4804392
:1037F000FB60FB683F4B9B693E4A43F008039361C3
:103800003C4B9B6903F00803BB60BB684FF420434B
:10381000BB610223FB6103237B6207F11803194696
:103820003B48FEF77BFC4FF48043BB610023FB6108
:1038300000233B6207F1180319463548FEF76EFC7A
:10384000344B354A1A60334B00225A60314B002208
:103850009A60304B8022DA602E4B00221A612D4B89
:1038600000225A612B4B00229A612A4B0022DA6116
:103870002848FEF709FE0346002B01D0FFF7E6FDBE
:103880007B68244ADA64234A7B685362234B244AC8
:103890001A60224B10225A60204B00229A601F4B64
:1038A0008022DA601D4B00221A611C4B00225A61F3
:1038B0001A4B00229A61194B0022DA611748FEF771
:1038C000E3FD0346002B01D0FFF7C0FD7B68134AE0
:1038D0009A64124A7B685362002200212420FFF779
:1038E00010F92420FFF729F900BF2837BD4680BD15
:1038F000003001400010024000080140C8020020D2
:103900001C0002400C030020300002400038004040
:10391000000C0140500300204400024094030020AA
:103920005800024080B586B000AF07F108030022BE
:103930001A605A609A60DA603B4600221A605A6048
:103940001F4B204A1A601E4B42F227325A601C4B12
:1039500000229A601A4B40F2E732DA60184B4FF4BB
:1039600000721A61164B00225A61154B00229A61AF
:103970001348FFF7FCF80346002B01D0FFF766FD64
:103980004FF48053BB6007F1080319460C48FFF75A
:103990007FFA0346002B01D0FFF758FD00233B6060
:1039A00000237B603B4619460548FFF761FC034650
:1039B000002B01D0FFF74AFD00BF1837BD4680BD80
:1039C000DC030020002C014080B584B000AF78609B
:1039D0007B681B680D4A934213D10D4B9B690C4ABF
:1039E00043F4006393610A4B9B6903F40063FB603B
:1039F000FB68002200211920FFF783F81920FFF748
:103A00009CF800BF1037BD4680BD00BF002C0140B0
:103A10000010024080B582B000AF78604FF40051D2
:103A20001F48FEF717FD7B681B681E4A934233D17F
:103A30001D4B1B78092B28D81B4B1B7803F0010367
:103A4000DBB2002B10D0184B1B780133DAB2164BC7
:103A50001A70164B1B78002B1ED1154B1B78002BB0
:103A60001AD100F0F1F917E00F4B1B780133DAB2ED
:103A70000D4B1A700F4B1B78002B0DD10E4B1B7882
:103A8000002B09D100F000FA06E000F091FA00F0F6
:103A90000BFB054B00221A7000BF0837BD4680BDE6
:103AA00000100140002C0140D803002098040020A1
:103AB000990400209A0400209B04002080B400AFE9
:103AC00000BFFDE780B400AF00BFFDE780B400AFEA
:103AD00000BFFDE780B400AF00BFFDE780B400AFDA
:103AE00000BFFDE780B400AF00BFBD4680BC70479B
:103AF00080B400AF00BFBD4680BC704780B400AF4B
:103B000000BFBD4680BC704780B500AFFDF7E8FE42
:103B100000BF80BD80B500AF0248FEF7E7FD00BFE3
:103B200080BD00BFC802002080B500AF0248FEF78C
:103B3000DDFD00BF80BD00BF0C03002080B500AFDD
:103B40000248FEF7D3FD00BF80BD00BF5003002038
:103B500080B500AF0248FEF7C9FD00BF80BD00BFC1
:103B60009403002080B500AF0248FFF7A1F800BF22
:103B700080BD00BFDC03002080B500AF0248FDF728
:103B800067FB00BF80BD00BF1802002080B500AFFA
:103B90000248FDF75DFB00BF80BD00BF7002002042
:103BA00080B584B000AF274B9B69264A43F00103E0
:103BB0009361244B9B6903F00103BB60BB68214BFD
:103BC000DB69204A43F08053D3611E4BDB6903F06D
:103BD00080537B607B68002201216FF00B00FEF7B1
:103BE00090FF002202216FF00A00FEF78AFF0022F8
:103BF00003216FF00900FEF784FF002204216FF01B
:103C00000400FEF77EFF002205216FF00300FEF79F
:103C100078FF002207216FF00100FEF772FF0A4BC8
:103C20005B68FB60FB6823F0E063FB60FB6843F0CC
:103C30008063FB60044AFB68536000BF1037BD46D9
:103C400080BD00BF001002400000014080B586B07A
:103C500000AF7860144A154BD31A7B617B693B61D6
:103C6000134B1B68002B02D1114B124A1A60104BE8
:103C70001A687B6813443A699A4207D201F06CFBD8
:103C800003460C221A604FF0FF3309E0084B1B6813
:103C9000FB60074B1A687B681344054A1360FB6896
:103CA00018461837BD4680BD0050002000040000B3
:103CB000240400202806002080B400AF0123184609
:103CC000BD4680BC704780B582B000AF7860396077
:103CD00001F042FB034616221A604FF0FF331846EC
:103CE0000837BD4680BD80B582B000AF78604FF028
:103CF000FF317868FFF7E7FF00BFFDE780B586B0CA
:103D000000AFF860B9607A6000237B610AE0AFF32E
:103D100000800146BB685A1CBA60CAB21A707B693F
:103D200001337B617A697B689A42F0DB7B681846D5
:103D30001837BD4680BD80B586B000AFF860B96069
:103D40007A6000237B6109E0BB685A1CBA601B786B
:103D50001846AFF300807B6901337B617A697B6829
:103D60009A42F1DB7B6818461837BD4680BD80B4A7
:103D700083B000AF78604FF0FF3318460C37BD4674
:103D800080BC704780B483B000AF786039603B6816
:103D90004FF400525A60002318460C37BD4680BCD1
:103DA000704780B483B000AF7860012318460C37A9
:103DB000BD4680BC704780B485B000AFF860B96084
:103DC0007A60002318461437BD4680BC7047000057
:103DD000FDF7B8F80B480C490C4A002302E0D45810
:103DE000C4500433C4188C42F9D3094A094C002347
:103DF00001E013600432A242FBD301F0B3FAFFF7F3
:103E0000A7FA704700000020F8010020447800085D
:103E1000F801002024060020FEE7000080B500AF76
:103E200001224FF480510648FEF7FCFA01221021CE
:103E30000448FEF7F7FA00F05DFB00BF80BD00BF4D
:103E4000000C01400008014080B500AF094B1B7811
:103E5000002B0DD1074B01221A70002210210648B9
:103E6000FEF7E0FA0923054A05490648FDF7F4F88C
:103E700000BF80BD980400200008014028040020F5
:103E8000140000201802002080B500AF0A4B1B78F8
:103E9000002B0ED1084B01221A7000224FF48051E2
:103EA0000648FEF7BFFA0423054A06490648FDF70F
:103EB000D3F800BF80BD00BF9A040020000C014071
:103EC00094040020C80400207002002080B582B055
:103ED00000AF78607B681B682B4A934227D1012290
:103EE00010212A48FEF79EFA294B1B78032B06D88F
:103EF000274B1B780133DAB2254B1A7002E0244BB2
:103F000000221A70224B1B781A461346DB0013441A
:103F10001F4A134401331F491A460B4603CB106056
:103F200051601B7813721C4B00221A7027E07B68CB
:103F30001B681A4A934222D101224FF4805118483B
:103F4000FEF770FA174B1B78032B06D8154B1B781E
:103F50000133DAB2134B1A7002E0124B00221A70CE
:103F6000104B1B781A461346DB0013440D4A1344CA
:103F700001330D4A12681A600C4B00221A7000BF00
:103F80000837BD4680BD00BF003001400008014039
:103F90003404002028040020980400200038004049
:103FA000000C014064040020940400209A040020C6
:103FB00080B584B000AF0023FB600023BB6032E01B
:103FC0003349BA681346DB0013440B4404331B78AF
:103FD00003F00103002B09D12D49BA681346DB0019
:103FE00013440B4404331B78002B02D100F072F908
:103FF0004AE02749BA681346DB0013440B440333F5
:104000001B78D9012248BA681346DB0013440344E5
:1040100004331B785B08DBB20B43FA681344FB6084
:10402000BB680133BB60BB68042BC9DDFB68194A60
:1040300082FB03125210DB17D31A7B607868FCF7FF
:1040400025FB03464FF084411846FCF727FC034646
:104050004FF087411846FCF763FA03461A460E4BA9
:104060001B6819461046FCF75DFA03461A460B4BCF
:104070001A600A4B1B681846FCF7CEF902460B463D
:104080000749084801F0B0F81037BD4680BD00BFB1
:104090003404002067666666C40400200C0000201B
:1040A00078740008A404002080B584B000AF002319
:1040B000FB6000237B8100233B8100237B609BE02E
:1040C00069497A681346DB0013440B4402331B78BA
:1040D00003F00103002B02D000F09CF9C0E062491C
:1040E0007A681346DB0013440B4403331B785BB23E
:1040F000002B1DDA5C497A681346DB0013440B443D
:1041000003331B781BB29B0019B257487A681346D9
:10411000DB001344034404331B789B09DBB21BB25E
:104120000B431BB26FEA83436FEA93437B8117E033
:104130004D497A681346DB0013440B4403331B7864
:104140001BB29B0019B248487A681346DB0013443F
:10415000034404331B789B09DBB21BB20B437B8106
:1041600041497A681346DB0013440B4401331B7842
:104170005BB2002B1DDA3C497A681346DB0013441E
:104180000B4401331B781BB29B0119B236487A6885
:104190001346DB001344034402331B789B08DBB255
:1041A0001BB20B431BB26FEA83436FEA93433B811D
:1041B00017E02D497A681346DB0013440B440133A2
:1041C0001B781BB29B0119B227487A681346DB00A3
:1041D0001344034402331B789B08DBB21BB20B432E
:1041E0003B81B7F90820B7F90A30D31AFA681344AB
:1041F000FB607B6801337B607B68042B7FF760AFDB
:10420000F868FCF743FA034618491846FCF746FBE2
:1042100003464FF07A511846FCF78CFA03461A46CB
:10422000134B1B6819461046FCF77CF903461846E9
:10423000FCF7F2F802460B461046194600F072FAF7
:1042400002460B4610461946FCF73EF90346094A5A
:104250005360084B5B681A460749084800F0C4FFE2
:104260001037BD4680BD00BF640400200000A040A0
:104270002C0000200C00002084740008B4040020EE
:1042800080B582B000AF78607B681B680D4A9342AE
:1042900007D1012210210C48FEF7C4F800F01AF8EB
:1042A0000CE07B681B68094A934207D101224FF456
:1042B00080510748FEF7B6F800F0ACF800BF0837A9
:1042C000BD4680BD0030014000080140003800407C
:1042D000000C014080B582B000AF464B464A1A60E0
:1042E000464B01221A704648FDF7B3F80246454B8B
:1042F0001B681343434A13600023FB7100233B6098
:1043000029E041493A681346DB0013440B44043367
:104310001B7803F00103002B0AD03B493A6813468F
:10432000DB0013440B4409331A78FB791343FB7108
:1043300035493A681346DB0013440B4404331B78B9
:10434000002B05D12F4B1B6843F400632D4A1360EB
:104350003B6801333B603B68042BD2DDFB7903F003
:104360000403002B05D0274B1B6843F48063254AC8
:104370001360FB7903F00803002B05D0214B1B6869
:1043800043F400631F4A1360FB7903F01003002B12
:1043900005D01C4B1B6843F480531A4A1360FB7909
:1043A00003F02003002B05D0164B1B6843F4005389
:1043B000144A1360FB7903F04003002B05D0114B26
:1043C0001B6843F480430F4A136097F90730002BB2
:1043D00005DA0C4B1B6843F400430A4A1360094B8F
:1043E0001B681A4609490A4800F0FEFE00BF08375C
:1043F000BD4680BD0C00002000C079C49904002097
:10440000180200209C04002034040020907400084E
:10441000A404002080B582B000AF2E4B2E4A5A6013
:104420002E4B01221A702E48FDF713F802462D4B31
:104430001B6813432B4A13600023FB7100233B606E
:1044400019E029493A681346DB0013440B44023350
:104450001B7803F00103002B0AD023493A68134666
:10446000DB0013440B4404331A78FB791343FB71CC
:104470003B6801333B603B68042BE2DDFB7903F0D2
:104480000103002B05D0174B1B6843F48073154ABA
:104490001360FB7903F00203002B05D0114B1B685E
:1044A00043F400730F4A1360FB7903F00403002BFD
:1044B00005D00C4B1B6843F480630A4A1360094B18
:1044C0001B681A4609490A4800F08EFE00BF0837EB
:1044D000BD4680BD0C00002019FCFFFF9B0400209E
:1044E00070020020A00400206404002090740008E2
:1044F000B404002080B500AF0B4B1B78002B10D10B
:104500000A4BFE22DA70084B01221A700022102199
:104510000748FDF787FF0923064A07490748FCF7C4
:104520009BFD00BF80BD00BF980400202804002030
:1045300000080140CC0400202000002018020020C8
:1045400080B500AF012220210748FDF76BFF012055
:10455000FDF7E2F9002220210348FDF763FF012067
:10456000FDF7DAF900BF80BD000C014080B582B0D4
:1045700000AF0346FB71FB7903F00103DBB21A467F
:1045800040211648FDF74EFFFB795B08DBB203F0D4
:104590000103DBB21A4680211048FDF743FFFB7987
:1045A0009B08DBB203F00103DBB21A464FF48071C3
:1045B0000A48FDF737FFFB79DB08DBB203F00103A4
:1045C000DBB21A464FF400710448FDF72BFFFFF7EA
:1045D000B7FF00BF0837BD4680BD00BF000C0140DB
:1045E00080B582B000AF0346FB71002210210A485B
:1045F000FDF718FFFB791B09DBB21846FFF7B6FF82
:10460000FB7903F00F03DBB21846FFF7AFFF00BFE3
:104610000837BD4680BD00BF000C014080B582B0A8
:1046200000AF0346FB71012210210A48FDF7FAFE94
:10463000FB791B09DBB21846FFF798FFFB7903F003
:104640000F03DBB21846FFF791FF00BF0837BD46E6
:1046500080BD00BF000C014080B500AF3220FDF7E7
:104660005BF90320FFF782FF0520FDF755F90320D2
:10467000FFF77CFF0120FDF74FF90320FFF776FFDE
:104680000120FDF749F90220FFF770FF2820FFF70E
:10469000A7FF0C20FFF7A4FF0120FFF7A1FF0220D6
:1046A000FDF73AF90620FFF79BFF00BF80BD80B5FC
:1046B00082B000AF786006E07B685A1C7A601B7895
:1046C0001846FFF7ABFF7B681B78002BF4D100BFC7
:1046D00000BF0837BD4680BD80B584B000AF03463B
:1046E0000A46FB711346BB71FB79002B03D0BB79E3
:1046F0004033DBB200E0BB79FB73FB7B63F07F03ED
:10470000DBB21846FFF76CFF00BF1037BD4680BD17
:1047100080B500AF0120FFF763FF0220FDF7FCF832
:1047200000BF80BDF8B5C1F30A57A7F2FF32132AC4
:1047300004460D460B461ADC002A0BDA01F0004352
:10474000013204BF43F07F5343F4401300221D465F
:10475000144616E0154810410140214311D04FF492
:10476000002141FA02F2134423EA0003EEE7332A60
:104770000ADDB2F5806F04D10246FBF7EFFC044678
:104780000D4620462946F8BD4FF0FF30A7F21347EB
:10479000F8402042F5D0C2F1330101228A401219BB
:1047A00028BF013322EA0002D1E700BFFFFF0F005C
:1047B000002B2DE9F0471D46BBBF03F100431D460A
:1047C00000232D2388B01446B8BF1446129A109EB9
:1047D0001370149BDDF84CA023F02008B8F1460FAD
:1047E00005D0B8F1450F00D10136022300E00323C4
:1047F00007AA049206AACDE902A2CDE90036224614
:104800002B4600F06DFEB8F1470F074619D1119BFA
:10481000DB070ED500EB06090022002320462946BF
:10482000FCF748FB08B1CDF81C903022079B4B45A4
:104830001ED33846079B159ADB1B136008B0BDE8F2
:10484000F087B8F1460F00EB0609E5D10378302B6D
:104850000AD10022002320462946FCF72BFB18B979
:10486000C6F10106CAF80060DAF800309944D3E7CF
:10487000591C07911A70D9E7F7B50029B6BF2D2347
:104880002B23494209290270437029DD0DF10703EA
:104890001D460A27B1FBF7F61A4607FB16143034FB
:1048A00002F8014C0C46632C314603F1FF33F1DC76
:1048B0003031941E03F8011C2346411CAB420AD33D
:1048C0000DF109039B1AAC4288BF00230233034455
:1048D000181A03B0F0BD13F8016B01F8016FEDE792
:1048E000302330318370C170031DF1E72DE9F04FA3
:1048F00091B00C46DDF8688016461F46054600F06C
:10490000E1FC036818460893FCF764F800230E9353
:10491000D8F800300990073323F0070303F10802A9
:1049200094F818A0D4F800B0C8F80020D3E90089A2
:1049300029F000430B93CDF828804FF0FF32DDE9DA
:104940000A01C4E912899C4BFCF7E6FA70BBDDE969
:104950000A014FF0FF32984BFCF7C0FA30BB00223F
:10496000002340464946FCF7AFFA10B12D2384F8E6
:104970004330924A924BBAF1470F8CBF904698460B
:1049800003234FF0000923612BF004032360334617
:104990002146284600970FAA00F0D4F9013040F0D4
:1049A00090804FF0FF3011B0BDE8F08F42464B468B
:1049B00040464946FCF7B0FA48B14B46002BB8BF19
:1049C0002D23804AB8BF84F843307F4BD3E7636818
:1049D0000AF0DF015A1C3FD10623636000224BF42A
:1049E0008063236006920EAACDE904A20DAA039269
:1049F0000DF13302CDE90132636842460093284647
:104A00004B460A91FFF7D4FE0A99804647290D9933
:104A100028D1C81C02DB6368994240DDAAF1020A72
:104A20005FFA8AFA5246013904F150000D91FFF7FE
:104A300023FF0E9A81461318012A236102DC2268A3
:104A4000D20701D5013323619DF83330002B9ED06E
:104A50002D2384F843309AE74729BFD1002BBDD1DD
:104A60000123BAE7BAF1650FDCD9BAF1660F18D1A4
:104A7000002963680BDD216113B92268D00702D5D4
:104A800001330B4423614FF00009A165DCE713B942
:104A90002268D20701D50233F4E70123F2E74FF091
:104AA000670A0E9B994205DB23682161D807EAD586
:104AB0004B1CE7E70029CCBF0122C1F102021344DD
:104AC000E0E723685A0507D4236942463146284661
:104AD000B84701302BD164E7BAF1650F40F2DC80B2
:104AE000D4E9120100220023FCF7E4F9002833D0B6
:104AF000012331462846354AB84701303FF451AFCB
:104B0000DDE90D38434502DB2368D8070FD5DDE921
:104B1000082331462846B84701303FF442AF4FF0F2
:104B2000000908F1FF3804F11A0AC84509DC2368B6
:104B30009B0700F10281E0680F9B9842B8BF1846BE
:104B400031E70123524631462846B84701303FF449
:104B500028AF09F10109E8E70D9B002B38DC0123A0
:104B600031462846194AB84701303FF41AAFDDE90B
:104B70000D3959EA030302D12368D907D7D5DDE9F6
:104B8000082331462846B84701303FF40AAF4FF0BA
:104B9000000A04F11A0B0D9B5B42534501DC4B46A6
:104BA00093E701235A4631462846B84701303FF47F
:104BB000F8AE0AF1010AEEE7FFFFEF7FC2740008CA
:104BC000BE740008CA740008C6740008CE740008D9
:104BD000A36DDDF838A05345A8BF5346002B994676
:104BE00036DC4FF0000B29EAE97904F11A02A36DD3
:104BF0000A93A3EB09035B4531DC0D9B9A453ADC34
:104C00002368DA0737D40D9BAAEB03090A9BAAEBAA
:104C100003039945A8BF9946B9F1000F33DC4FF063
:104C2000000829EAE97904F11A0B0D9BAAEB0303AA
:104C3000A3EB090343457FF77AAF01235A46314678
:104C40002846B84701303FF4ACAE08F10108ECE764
:104C5000424631462846B8470130C2D1A1E6012379
:104C6000314628460A92B84701303FF49AAE0A9A74
:104C70000BF1010BBBE73146DDE908232846B847B5
:104C80000130C0D18DE60A9A4B463146284642444F
:104C9000B8470130C3D184E6DDF838A0BAF1010F7E
:104CA00001DCDB0736D50123424631462846B847AA
:104CB00001303FF476AEDDE9082331462846B84797
:104CC00001303FF46EAED4E91201002200230AF154
:104CD000FF3AFCF7EFF8C0B9534608F1010231463C
:104CE0002846B84701300CD15BE601235A463146CD
:104CF0002846B84701303FF454AE08F10108D045CA
:104D0000F3DB4B4604F15002E0E64FF0000804F1FB
:104D10001A0BF4E701234246E1E701234A463146F4
:104D20002846B84701303FF43CAE08F10108E3687B
:104D30000F995B1A4345F0DCFDE64FF0000804F1E3
:104D40001909F4E72DE9F047164698468A680B6979
:104D500007469342B8BF1346336091F843200C4690
:104D6000DDF820900AB1013333602368990642BF11
:104D7000336802333360256815F0060506D104F167
:104D8000190AE36832689B1AAB422BDC94F8433073
:104D90002268003B18BF0123920630D441463846B2
:104DA00004F14302C847013023D02368226903F08D
:104DB0000603042B14BF002533684FF0000608BF1C
:104DC000E56804F11A0408BFED1A54F8123C08BF54
:104DD00025EAE5759342C4BF9B1AED18B5421AD176
:104DE000002008E00123524641463846C8470130BA
:104DF00003D14FF0FF30BDE8F0870135C1E7302027
:104E0000E11881F843005A1C94F8451022440233FB
:104E100082F84310C2E70123224641463846C8477C
:104E20000130E6D00136D9E72DE9FF470F7E9146E4
:104E3000782F80460C469A460C9E01F1430207D813
:104E4000622F0AD8002F00F0D180582F00F0B880D0
:104E500004F1420684F842703AE0A7F16303152B8F
:104E6000F6D801A151F823F0C14E0008D54E000834
:104E7000514E0008514E0008514E0008514E000896
:104E8000D54E0008514E0008514E0008514E000802
:104E9000514E0008D34F0008FF4E00088D4F000808
:104EA000514E0008514E0008F54F0008514E0008C1
:104EB000FF4E0008514E0008514E0008954F000863
:104EC00033681A1D1B68326004F1420684F84230D0
:104ED00001239CE033682068191D3160060601D566
:104EE0001D6803E04506FBD5B3F90050002D03DA39
:104EF0002D236D4284F843300A23584811E021687D
:104F00003368080653F8045B02D4490648BFADB2C3
:104F10006F2F336014BF0A2308235048002184F800
:104F200043106668002EA66005DB21682E4321F041
:104F3000040121604BD01646B5FBF3F103FB11577A
:104F4000C75D06F8017D2F46BB420D46F4D9082BFC
:104F50000BD12368DF0708D5236961689942DEBF5A
:104F6000302306F8013C06F1FF36921B22614B46C6
:104F700021464046CDF800A003AAFFF7E3FE01302A
:104F80004AD14FF0FF3004B0BDE8F087236843F00A
:104F9000200323607827324884F8457023683168FD
:104FA0001F0651F8045B02D45F0648BFADB2316002
:104FB000D90744BF43F0200323601DB11023ADE7A0
:104FC0002648E9E7236823F020032360F6E7164626
:104FD000BDE733682568181D616930602E061B68BF
:104FE00001D5196002E06806FBD51980002316463A
:104FF0002361BCE7336800211A1D32601E686268B5
:10500000304600F0D6F908B1801B60606368236108
:10501000002384F84330AAE73246494640462369D4
:10502000D0470130ADD023689B0713D4E068039BC1
:105030009842B8BF1846A6E7012332464946404683
:10504000D04701309DD00135E36803995B1AAB422C
:10505000F2DCEBE7002504F11906F5E7D07400084F
:10506000E1740008002310B50446C0E90033C0E92C
:105070000433836081814366C281836119460822BB
:105080005C3000F016F90D4B246263620C4BA36296
:105090000C4BE3620C4B23630C4B9C4206D003F198
:1050A0006802944202D0D0339C4205D104F15800EA
:1050B000BDE8104000F07AB910BD00BF2D520008C5
:1050C0004F52000887520008AB520008D804002055
:1050D000024A0349034800F069B800BF30000020CD
:1050E000296D00084000002041680C4B10B5994222
:1050F000044601D001F018FEA168094B994202D084
:10510000204601F011FEE168064B994204D020468A
:10511000BDE8104001F008BE10BD00BFD80400205B
:1051200040050020A805002010B50B4B0B4C0C4A85
:1051300020461A6004210022FFF794FF04F1680062
:1051400001220921FFF78EFF04F1D0000222BDE801
:1051500010401221FFF786BF10060020D80400205F
:10516000D1500008014800F022B900BF1906002004
:10517000014800F01DB900BF1906002010B5044613
:10518000FFF7F0FF236A1BB1BDE81040FFF7F0BF47
:10519000044B2362044B1B68002BF5D1FFF7C4FFBF
:1051A000F2E700BFE9500008100600202DE9F8439F
:1051B0000746884614460026D4E90195B9F101094D
:1051C00005D52468002CF7D13046BDE8F883AB89BB
:1051D000012B07D9B5F90E30013303D029463846E3
:1051E000C04706436835E9E70EB46FF0004110B5DB
:1051F00000249DB01FAB02900690079104910948CE
:10520000094953F8042B0591006802A901931B94E6
:1052100001F00EFC029B1C701DB0BDE8104003B0F5
:10522000704700BF3C0000200802FFFF10B50C468D
:10523000B1F90E1000F06CF80028ABBF636DA389C4
:105240001B1823F48053ACBF6365A38110BD2DE907
:10525000F0411F468B890546DB050C46164605D5F1
:1052600002230022B1F90E1000F040F8A389324663
:1052700023F48053A38128463B46B4F90E10BDE8C1
:10528000F04100F057B810B50C46B1F90E1000F01F
:105290002DF8431CA38915BF606523F4805343F4A4
:1052A0008053A38118BFA38110BDB1F90E1000F087
:1052B0000DB803460244934200D1704703F8011B26
:1052C000F9E70000004870477C01002038B5002352
:1052D000054D044608462B60FEF749FD431C02D1EC
:1052E0002B6803B1236038BD1406002038B504468E
:1052F000084611460022054D2A601A46FEF75BFD5E
:10530000431C02D12B6803B1236038BD1406002072
:1053100038B50446084611460022054D2A601A4653
:10532000FEF7ECFC431C02D12B6803B1236038BDAF
:105330001406002038B50446084611460022054DE3
:105340002A601A46FEF7F7FC431C02D12B6803B112
:10535000236038BD14060020014B1868704700BF59
:105360003C00002070B500260C4D0D4C641BA410B1
:10537000A64209D102F074F800260A4D0A4C641BBB
:10538000A410A64205D170BD55F8043B98470136DC
:10539000EEE755F8043B98470136F2E73C78000801
:1053A0003C7800083C780008407800087047704757
:1053B0007047034610B5C9B202449342184601D162
:1053C000002003E0047801338C42F6D110BD2DE9B2
:1053D000F74F03690C690746A3427EDB013CA3003B
:1053E00000F1140501F11408009305EB8403019307
:1053F00058F8243055F8242001339A42B2FBF3F6D2
:1054000008EB84092ED34FF0000AC446AE46D346BB
:105410005CF8043B98B206FB00A01B0C020C06FBD8
:105420000323DEF8002080B292B2121A5A44DEF84A
:1054300000004FEA134A9BB2C3EB224303EB104335
:1054400092B242EA0342E1454FEA234B4EF8042B65
:10545000DED2009BEB582BB9019B043B9D421A46C0
:105460002FD33C61384601F07FF9002825DB29461F
:10547000002058F8042BD1F800C01FFA82FE1FFA52
:105480008CF3A3EB0E030344120CC2EB234202EB9A
:105490001C429BB243EA0243C1454FEA224041F815
:1054A000043BE6D255F8242005EB840322B9043BE3
:1054B0009D421A460BD33C610136304603B0BDE82D
:1054C000F08F1268043B002ACBD1013CC6E712687A
:1054D000043B002AEFD1013CEAE70020EEE70000A0
:1054E0002DE9F04F14461D46C76997B08146CDE9B6
:1054F0000645239E7FB9102000F00EFE0246C9F833
:105500001C0020B9EF21AC4BAC4801F06DFCC0E9A8
:1055100001770760C760D9F81C30196859B15A681B
:10552000012393404A608B60484600F0EBFE002266
:10553000D9F81C301A602B1EAFBF0023012223F0C4
:1055400000430793A8BF3360DDF81C809C4BB8BFB5
:10555000326033EA080312D142F20F73229A1360C9
:10556000C8F31303234300F05E85249BDFF854A2A5
:10557000002B00F060850AF1030300F05ABDDDE95D
:105580000623CDE90C23DDE90C0100220023FBF703
:1055900091FC074658B10123229A1360249B13B152
:1055A000894B249A1360DFF824A200F044BD14ABA9
:1055B000019315AB00934846DDE90C2301F084F913
:1055C000C8F30A560390002E78D0DDE90C010D9B3C
:1055D000A6F2FF36C3F3130343F07F5343F44013A3
:1055E0001297194600227A4BFAF7B6FD6CA3D3E95D
:1055F0000023FBF7F7F96CA3D3E90023FAF7AEFD1C
:10560000044630460D46FAF7F5FE69A3D3E90023B8
:10561000FBF7E8F902460B4620462946FAF79EFDBD
:1056200004460D46FAF750FF0022074600232046A5
:105630002946FBF749FC40B13846FAF7DBFE224623
:105640002B46FBF737FC00B9013F162F54D8DDE994
:105650000C01604B03EBC703D3E90023FBF734FCD9
:1056600000284BD00023013F0F93149B9B1B5A1E15
:1056700049BFC3F10103002304930023099254BFDF
:1056800004930993002F3BDB099B0E973B4409933E
:1056900000230A93209B092B65D8052BC4BF043B2C
:1056A0002093209BC8BF0024A3F10203D8BF01248C
:1056B000032B64D8DFE803F05355382CDDE914637D
:1056C0001E4406F23243202BC1BFC3F1400308FA47
:1056D00003F806F2124324FA03F3D6BFC3F1200302
:1056E00048EA030004FA03F0FAF774FE0122A1F17C
:1056F000F873013E129274E70123B5E70F90B4E707
:10570000049BDB1B04937B420A9300230E93C1E7A7
:1057100001230B93219B07EB030B0BF10103012BDF
:105720000893B8BF012306E001230B93219B002BB4
:1057300028DD9B46089300210422D9F81C0002F1C1
:1057400014059D4226D94160484600F09BFD8246E3
:10575000002843D1024640F2AF111F4BD4E600238C
:10576000E3E70023D5E7012400230B9420934FF0B7
:10577000FF3B00221223CDF820B02192DBE701236A
:105780000B93F4E74FF0010B5B46CDF820B0CDF85A
:1057900084B0D0E701315200D1E700BFAFF3008001
:1057A00061436F63A787D23FB3C8608B288AC63F27
:1057B000FB799F501344D33FFF740008167500080F
:1057C0000000F07FFB740008CF740008CE7400085E
:1057D0000000F83F687600086E750008D9F81C30A4
:1057E0001860089B0E2B00F2A180002C00F09E8018
:1057F000002F33DD9C4B07F00F0203EBC203F805CB
:10580000D3E90034CDE910344FEA271416D5DDE989
:105810000C01964B0326D3E90823FBF70DFACDE9DB
:10582000060104F00F04914D54B9DDE91023DDE9C0
:105830000601FBF701FACDE9060128E00226F2E7AE
:10584000E10708D5DDE91001D5E90023FBF7CAF827
:10585000CDE91001013664100835E5E700F0AF80AE
:10586000DDE90C017C42804B04F00F0203EBC20324
:10587000D3E90023FBF7B6F802260023CDE90601A1
:105880007A4D2411002C40F08F80002BD3D1DDE91C
:1058900006450F9B002B00F09480002220462946ED
:1058A000734BFBF711FB002800F08B80089B002B4B
:1058B00000F08780BBF1000F34DD2046002229462E
:1058C0006C4BFBF78FF85C46CDE9060107F1FF381A
:1058D00001363046FAF78EFDDDE90623FBF782F844
:1058E0000022654BFAF73AFC0546A1F15076002CF0
:1058F0006AD1DDE906010022604BFAF72DFC024671
:105900000B46CDE906232A463346FBF7FBFA00286F
:1059100040F09882DDE906012A4606F10043FBF7D4
:10592000D3FA38BBDDE90C34CDE90634159B002BE6
:10593000C0F257810E2F00F354814B4B03EBC7038A
:10594000D3E90034CDE90434219B002B80F2E580BB
:10595000089B002B00F3E1800CD1DDE9040100225B
:10596000464BFBF73FF8DDE90623FBF7C1FA0028B9
:1059700000F0668200242546219B56466FEA030804
:1059800000272146484600F0BDFC002D00F0BD80F8
:105990002FB1AF4203D03946484600F0B3FC294648
:1059A000484600F0AFFCB0E0E20705D5D5E900239A
:1059B000FBF718F8012301366410083562E7022668
:1059C00065E7B846089C84E7274B0B9903EBC403B3
:1059D00053E902235444002954D000202849FBF7FE
:1059E0002BF933462A46FAF7B7FB5646CDE91001A4
:1059F000DDE90601FAF768FD0546FAF7FBFC024609
:105A00000B46DDE90601FAF7A7FB02460B463035E7
:105A1000CDE90623DDE9102306F8015BFBF754FA14
:105A2000002872D1DDE9062300201149FAF794FB22
:105A3000DDE91023FBF748FA002840F0B480A642C5
:105A40003FF470AFDDE9100100220A4BFAF7CAFFFC
:105A50000022CDE91001DDE90601064BFAF7C2FF8D
:105A6000CDE90601C4E700BF68760008407600086B
:105A70000000F03F0000244000001C4000001440E3
:105A80000000E03F31462846FAF7ACFF5646CDE924
:105A900010011394DDE90601FAF716FD0546FAF741
:105AA000A9FC02460B46DDE90601FAF755FB024662
:105AB0000B46303506F8015BA642CDE906234FF0D0
:105AC000000224D1DDE91001AE4BFAF747FB024694
:105AD0000B46DDE90601FBF715FA002863D1DDE985
